{
  "transactions": [
    {
      "hash": "0x31137a536366a8e1ade9015095a641c0b9993e31ca6ef66a86fd7be92726a80a",
      "transactionType": "CALL",
      "contractName": null,
      "contractAddress": "0x40ac72c5c7712566eb5552fb1ab2093fa07b9682",
      "function": "addOperatingAgreementName(string,string)",
      "arguments": [
        "ipfs://bafkreihkphcet3ncjlmd7kv4wgc32ot3mnkpudavtydnwt4hdaa3q5z6mi",
        "Fabrica US Trust v4.2"
      ],
      "transaction": {
        "from": "0xbf03076547a99857b796717faf4034dea94569df",
        "to": "0x40ac72c5c7712566eb5552fb1ab2093fa07b9682",
        "gas": "0x14b14",
        "value": "0x0",
        "input": "0x3e043d0e000000000000000000000000000000000000000000000000000000000000004000000000000000000000000000000000000000000000000000000000000000c00000000000000000000000000000000000000000000000000000000000000042697066733a2f2f6261666b726569686b7068636574336e636a6c6d64376b763477676333326f74336d6e6b70756461767479646e777434686461613371357a366d690000000000000000000000000000000000000000000000000000000000000000000000000000000000000000000000000000000000000000000000000015466162726963612055532054727573742076342e320000000000000000000000",
        "nonce": "0x1b",
        "chainId": "0x14a34"
      },
      "additionalContracts": [],
      "isFixedGasLimit": false
    },
    {
      "hash": "0xdee39641644c8380afc6f66199eab64d699883d1380f3509de6d6f0d6ebe40e8",
      "transactionType": "CALL",
      "contractName": null,
      "contractAddress": "0x40ac72c5c7712566eb5552fb1ab2093fa07b9682",
      "function": "setDefaultOperatingAgreement(string)",
      "arguments": [
        "ipfs://bafkreihkphcet3ncjlmd7kv4wgc32ot3mnkpudavtydnwt4hdaa3q5z6mi"
      ],
      "transaction": {
        "from": "0xbf03076547a99857b796717faf4034dea94569df",
        "to": "0x40ac72c5c7712566eb5552fb1ab2093fa07b9682",
        "gas": "0x111a5",
        "value": "0x0",
        "input": "0x564ea04400000000000000000000000000000000000000000000000000000000000000200000000000000000000000000000000000000000000000000000000000000042697066733a2f2f6261666b726569686b7068636574336e636a6c6d64376b763477676333326f74336d6e6b70756461767479646e777434686461613371357a366d69000000000000000000000000000000000000000000000000000000000000",
        "nonce": "0x1c",
        "chainId": "0x14a34"
      },
      "additionalContracts": [],
      "isFixedGasLimit": false
    }
  ],
  "receipts": [
    {
      "status": "0x1",
      "cumulativeGasUsed": "0x2bfbe5",
      "logs": [
        {
          "address": "0x40ac72c5c7712566eb5552fb1ab2093fa07b9682",
          "topics": [
            "0x93867fadbf73f0a7ccab2acb12135c4f0b56915214e5199101102ecdf85e112a"
          ],
          "data": "0x000000000000000000000000000000000000000000000000000000000000004000000000000000000000000000000000000000000000000000000000000000c00000000000000000000000000000000000000000000000000000000000000042697066733a2f2f6261666b726569686b7068636574336e636a6c6d64376b763477676333326f74336d6e6b70756461767479646e777434686461613371357a366d690000000000000000000000000000000000000000000000000000000000000000000000000000000000000000000000000000000000000000000000000015466162726963612055532054727573742076342e320000000000000000000000",
          "blockHash": "0xfced767e72f5b482e7a239afbba364d98b13ea251c8378c916b56dfd678abd89",
          "blockNumber": "0x23cf15a",
          "blockTimestamp": "0x698d4194",
          "transactionHash": "0xdee39641644c8380afc6f66199eab64d699883d1380f3509de6d6f0d6ebe40e8",
          "transactionIndex": "0xb",
          "logIndex": "0x87",
          "removed": false
        }
      ],
      "logsBloom": "0x00000000000000000000000000000000000000000000000000000000000000000000000000000000000000000000000000040000000000000000000000000000000000000000000000000000000000000000000000000000000000000000000000000000000000000000000000000000000000000000000000000000000000000000000000000000000000000000000000000000000000000000000000000000000000000000000000000000000000000000000000000000000400000000000000000000000000000000000000000800000000002000000000000000000000000000000000000000000000000000000000000010000000020000000000000000",
      "type": "0x2",
      "transactionHash": "0xdee39641644c8380afc6f66199eab64d699883d1380f3509de6d6f0d6ebe40e8",
      "transactionIndex": "0xb",
      "blockHash": "0xfced767e72f5b482e7a239afbba364d98b13ea251c8378c916b56dfd678abd89",
      "blockNumber": "0x23cf15a",
      "gasUsed": "0xe261",
      "effectiveGasPrice": "0x2dc6c0",
      "blobGasUsed": "0x5655",
      "from": "0xbf03076547a99857b796717faf4034dea94569df",
      "to": "0x40ac72c5c7712566eb5552fb1ab2093fa07b9682",
      "contractAddress": null,
      "daFootprintGasScalar": "0x8b",
      "l1BaseFeeScalar": "0x44d",
      "l1BlobBaseFee": "0x117749cd",
      "l1BlobBaseFeeScalar": "0xa118b",
      "l1Fee": "0xb50b94b75",
      "l1GasPrice": "0x1767b514f",
      "l1GasUsed": "0x9fd"
    },
    {
      "status": "0x1",
      "cumulativeGasUsed": "0x2cc203",
      "logs": [
        {
          "address": "0x40ac72c5c7712566eb5552fb1ab2093fa07b9682",
          "topics": [
            "0x2ecc82b8f02ffa4614599a2d55d9ddc2ba6e6561de7fa8cbf623decfb42e3815"
          ],
          "data": "0x00000000000000000000000000000000000000000000000000000000000000200000000000000000000000000000000000000000000000000000000000000042697066733a2f2f6261666b726569686b7068636574336e636a6c6d64376b763477676333326f74336d6e6b70756461767479646e777434686461613371357a366d69000000000000000000000000000000000000000000000000000000000000",
          "blockHash": "0xfced767e72f5b482e7a239afbba364d98b13ea251c8378c916b56dfd678abd89",
          "blockNumber": "0x23cf15a",
          "blockTimestamp": "0x698d4194",
          "transactionHash": "0x31137a536366a8e1ade9015095a641c0b9993e31ca6ef66a86fd7be92726a80a",
          "transactionIndex": "0xc",
          "logIndex": "0x88",
          "removed": false
        }
      ],
      "logsBloom": "0x00000000000000000000000000000000000000000000000000000000000400000000000000000000000000000000000000040000000000000000000000000000000000000000000000000000000000000000000000000000000000000000000000000000000000000000000000000000000000000000000000000000000000000000000000000000000000000000000000000000000000000000000000000000000000000000000001000000000000100000000000000000000000000000000000000000000000000000000000000000000000000000000000000000000000000000000000000000000000000000000000000010000000020000000000000000",
      "type": "0x2",
      "transactionHash": "0x31137a536366a8e1ade9015095a641c0b9993e31ca6ef66a86fd7be92726a80a",
      "transactionIndex": "0xc",
      "blockHash": "0xfced767e72f5b482e7a239afbba364d98b13ea251c8378c916b56dfd678abd89",
      "blockNumber": "0x23cf15a",
      "gasUsed": "0xc61e",
      "effectiveGasPrice": "0x2dc6c0",
      "blobGasUsed": "0x4696",
      "from": "0xbf03076547a99857b796717faf4034dea94569df",
      "to": "0x40ac72c5c7712566eb5552fb1ab2093fa07b9682",
      "contractAddress": null,
      "daFootprintGasScalar": "0x8b",
      "l1BaseFeeScalar": "0x44d",
      "l1BlobBaseFee": "0x117749cd",
      "l1BlobBaseFeeScalar": "0xa118b",
      "l1Fee": "0x93e299f75",
      "l1GasPrice": "0x1767b514f",
      "l1GasUsed": "0x829"
    }
  ],
  "libraries": [],
  "pending": [],
  "returns": {},
  "timestamp": 1770865045248,
  "chain": 84532,
  "commit": "fd5ab7c"
}