{
  "transactions": [
    {
      "hash": "0x39b155fc77aa994a475dd21c291e01055df29540aa11334311de5bc63c97626f",
      "transactionType": "CALL",
      "contractName": null,
      "contractAddress": "0xaaa7fdc1a573965a2ed47ab154332b6b55098008",
      "function": "addOperatingAgreementName(string,string)",
      "arguments": [
        "ipfs://bafkreihkphcet3ncjlmd7kv4wgc32ot3mnkpudavtydnwt4hdaa3q5z6mi",
        "Fabrica US Trust v4.2"
      ],
      "transaction": {
        "from": "0xbf03076547a99857b796717faf4034dea94569df",
        "to": "0xaaa7fdc1a573965a2ed47ab154332b6b55098008",
        "gas": "0x14b1f",
        "value": "0x0",
        "input": "0x3e043d0e000000000000000000000000000000000000000000000000000000000000004000000000000000000000000000000000000000000000000000000000000000c00000000000000000000000000000000000000000000000000000000000000042697066733a2f2f6261666b726569686b7068636574336e636a6c6d64376b763477676333326f74336d6e6b70756461767479646e777434686461613371357a366d690000000000000000000000000000000000000000000000000000000000000000000000000000000000000000000000000000000000000000000000000015466162726963612055532054727573742076342e320000000000000000000000",
        "nonce": "0x11c",
        "chainId": "0xaa36a7"
      },
      "additionalContracts": [],
      "isFixedGasLimit": false
    },
    {
      "hash": "0xbf34e5593254479eda3f171204b96e244d306e70176553db1978ae034e4d8ed8",
      "transactionType": "CALL",
      "contractName": null,
      "contractAddress": "0xaaa7fdc1a573965a2ed47ab154332b6b55098008",
      "function": "setDefaultOperatingAgreement(string)",
      "arguments": [
        "ipfs://bafkreihkphcet3ncjlmd7kv4wgc32ot3mnkpudavtydnwt4hdaa3q5z6mi"
      ],
      "transaction": {
        "from": "0xbf03076547a99857b796717faf4034dea94569df",
        "to": "0xaaa7fdc1a573965a2ed47ab154332b6b55098008",
        "gas": "0x111b0",
        "value": "0x0",
        "input": "0x564ea04400000000000000000000000000000000000000000000000000000000000000200000000000000000000000000000000000000000000000000000000000000042697066733a2f2f6261666b726569686b7068636574336e636a6c6d64376b763477676333326f74336d6e6b70756461767479646e777434686461613371357a366d69000000000000000000000000000000000000000000000000000000000000",
        "nonce": "0x11d",
        "chainId": "0xaa36a7"
      },
      "additionalContracts": [],
      "isFixedGasLimit": false
    }
  ],
  "receipts": [
    {
      "status": "0x1",
      "cumulativeGasUsed": "0x1805654",
      "logs": [
        {
          "address": "0xaaa7fdc1a573965a2ed47ab154332b6b55098008",
          "topics": [
            "0x93867fadbf73f0a7ccab2acb12135c4f0b56915214e5199101102ecdf85e112a"
          ],
          "data": "0x000000000000000000000000000000000000000000000000000000000000004000000000000000000000000000000000000000000000000000000000000000c00000000000000000000000000000000000000000000000000000000000000042697066733a2f2f6261666b726569686b7068636574336e636a6c6d64376b763477676333326f74336d6e6b70756461767479646e777434686461613371357a366d690000000000000000000000000000000000000000000000000000000000000000000000000000000000000000000000000000000000000000000000000015466162726963612055532054727573742076342e320000000000000000000000",
          "blockHash": "0x71d1c32a8c643bda5bd277ff6b868beb287699bfb27cb368943536e52cbb04d6",
          "blockNumber": "0x9c4a48",
          "blockTimestamp": "0x698d417c",
          "transactionHash": "0x39b155fc77aa994a475dd21c291e01055df29540aa11334311de5bc63c97626f",
          "transactionIndex": "0x70",
          "logIndex": "0x1be",
          "removed": false
        }
      ],
      "logsBloom": "0x00000000000000000000000000000000000000000000000000000000000000000000000000000000000000000000000000000000000000000000000000000000000000000000000000000000000000000000000000000000000000000000000000000000000000000000000000000000000000000000000000000000000000000000000000000000000000000000000000000002001000000000000000000000000000000000000000000000000000000000000000000000000400000000000000000000000000000000000000000800000000002000000000000000000000000000000000000000000000000000000000000000000000000000010000000000",
      "type": "0x2",
      "transactionHash": "0x39b155fc77aa994a475dd21c291e01055df29540aa11334311de5bc63c97626f",
      "transactionIndex": "0x70",
      "blockHash": "0x71d1c32a8c643bda5bd277ff6b868beb287699bfb27cb368943536e52cbb04d6",
      "blockNumber": "0x9c4a48",
      "gasUsed": "0xe269",
      "effectiveGasPrice": "0x1756da47f",
      "from": "0xbf03076547a99857b796717faf4034dea94569df",
      "to": "0xaaa7fdc1a573965a2ed47ab154332b6b55098008",
      "contractAddress": null
    },
    {
      "status": "0x1",
      "cumulativeGasUsed": "0x1c1ce22",
      "logs": [
        {
          "address": "0xaaa7fdc1a573965a2ed47ab154332b6b55098008",
          "topics": [
            "0x2ecc82b8f02ffa4614599a2d55d9ddc2ba6e6561de7fa8cbf623decfb42e3815"
          ],
          "data": "0x00000000000000000000000000000000000000000000000000000000000000200000000000000000000000000000000000000000000000000000000000000042697066733a2f2f6261666b726569686b7068636574336e636a6c6d64376b763477676333326f74336d6e6b70756461767479646e777434686461613371357a366d69000000000000000000000000000000000000000000000000000000000000",
          "blockHash": "0x71d1c32a8c643bda5bd277ff6b868beb287699bfb27cb368943536e52cbb04d6",
          "blockNumber": "0x9c4a48",
          "blockTimestamp": "0x698d417c",
          "transactionHash": "0xbf34e5593254479eda3f171204b96e244d306e70176553db1978ae034e4d8ed8",
          "transactionIndex": "0x7a",
          "logIndex": "0x1df",
          "removed": false
        }
      ],
      "logsBloom": "0x00000000000000000000000000000000000000000000000000000000000400000000000000000000000000000000000000000000000000000000000000000000000000000000000000000000000000000000000000000000000000000000000000000000000000000000000000000000000000000000000000000000000000000000000000000000000000000000000000000002001000000000000000000000000000000000000001000000000000100000000000000000000000000000000000000000000000000000000000000000000000000000000000000000000000000000000000000000000000000000000000000000000000000000010000000000",
      "type": "0x2",
      "transactionHash": "0xbf34e5593254479eda3f171204b96e244d306e70176553db1978ae034e4d8ed8",
      "transactionIndex": "0x7a",
      "blockHash": "0x71d1c32a8c643bda5bd277ff6b868beb287699bfb27cb368943536e52cbb04d6",
      "blockNumber": "0x9c4a48",
      "gasUsed": "0xc626",
      "effectiveGasPrice": "0x1756da47f",
      "from": "0xbf03076547a99857b796717faf4034dea94569df",
      "to": "0xaaa7fdc1a573965a2ed47ab154332b6b55098008",
      "contractAddress": null
    }
  ],
  "libraries": [],
  "pending": [],
  "returns": {},
  "timestamp": 1770865022085,
  "chain": 11155111,
  "commit": "fd5ab7c"
}